S017000041697220436F6E646974696F6E65722E7372656353
S11300000C9431000C944E000C944E000C944E0051
S11300100C944E000C94F6080C944E000C944E0074
S11300200C944E000C944E000C944E000C944E0014
S11300300C944E000C944E000C944E000C944E0004
S11300400C944E000C944E000C944E000C944E00F4
S11300500C944E009908A408BA08AF08C508D00843
S1130060DB0811241FBECFE5D8E0DEBFCDBF11E011
S1130070A0E6B0E0E2E0F8E102C005900D92AE32F5
S1130080B107D9F721E0AEE2B1E001C01D92A83377
S1130090B207E1F70E940D050C94FF0B0C940000CD
S11300A00F931F93CF93DF93CDB7DEB7A4970FB60B
S11300B0F894DEBF0FBECDBF8CE0EBE8F0E0DE01CC
S11300C0119601900D928A95E1F780E1E7E9F0E05D
S11300D0DE011D9601900D928A95E1F788E0E1E634
S11300E0F0E0DE015D9601900D928A95E1F700E063
S11300F001C00F5FE1E0F0E0EC0FFD1FE00FF11D28
S113010080818111F6CF10E001C01F5FEDE0F0E0C7
S1130110EC0FFD1FE10FF11D80818111F6CF14C09A
S1130120802F90E0019721E030E02C0F3D1F820FDB
S1130130931F0E94780483ED90E30197F1F700C0C8
S113014000000E94DD040150023050F700E011C0AD
S1130150602F81E00E94E104CE0101960E947804A0
S113016083ED90E30197F1F700C000000E94DD04E5
S11301700F5F0F3068F318C060E082E00E94E10472
S1130180812F90E001972DE030E02C0F3D1F820F6E
S1130190931F0E94780483ED90E30197F1F700C068
S11301A000000E94DD041150123030F783ED90E31B
S11301B00197F1F700C0000010E011C0612F82E048
S11301C00E94E104CE010D960E94780483ED90E331
S11301D00197F1F700C000000E94DD041F5F1F308B
S11301E068F360E081E00E94E10489E690E00E9407
S11301F0780460E082E00E94E1048AE790E00E94D3
S113020078049FE926E831E0915020403040E1F73E
S113021000C0000062E0CE014D960E94F204A49654
S11302200FB6F894DEBF0FBECDBFDF91CF911F9103
S11302300F91089560E081E00E94E10487EA90E074
S11302400E94780460E082E00E94E10486EB90E082
S11302500E94780460E070E08AEF93E40E9436081C
S11302600E94DD0460E081E00E94E10485EC90E0FE
S11302700E94780460E082E00E94E10484ED90E052
S11302800E94780460E070E08AEF93E40E943608EC
S11302900E94DD040895CF93DF93D0E03CC00E9418
S11302A09B02D82F60E070E088E492E40E94360854
S11302B0D13319F0D23349F012C0809160008F5FBE
S11302C080936000109236010DC0809160008150CF
S11302D0809360000E94DD041092360103C081E027
S11302E08093360167E081E00E94E1046091600040
S11302F070E080E090E00E948B0460E082E00E9465
S1130300E104C2E104C08CE70E94EF04CF5F809156
S113031060008C17C0F7D33339F0D53329F08091BE
S11303203701823009F0BBCFD33319F0D53329F02C
S113033007C082E08093370103C084E080933701D3
S1130340DF91CF910895CF93DF9386E00E942A0531
S113035062E081E00E94E10483EE90E00E94780470
S113036062E082E00E94E1040E943905EC01BC01D4
S113037080E090E00E948B04CE01DF91CF9108953C
S1130380CF930E94DD04C0E03FC00E949B02C82FAF
S113039060E070E088E492E40E9436080E94A301C1
S11303A02091600030E02817390750F40E94780249
S11303B068E082E00E94E10482E00E94EF040AC047
S11303C00E947D0268E082E00E94E10482ED90E0F8
S11303D00E9478048FEC8C0F8230B0F40E94DD040C
S11303E082EF90E00E94780461E082E00E94E104E0
S11303F083E091E00E94780460E070E08AEF93E487
S11304000E9436080E94DD048CEC8C0F823008F0C8
S1130410BCCF0E94DD04C43321F483E08093370110
S113042005C0C53319F484E080933701CF91089552
S11304300E94DD040E947D0281E08093370160E028
S113044070E08AEF93E40E94360808950E94DD0468
S113045084E1809360008FE091E00E94780461E081
S113046082E00E94E1048DE191E00E94780460E062
S113047070E08AEF94E40E94360882E080933701AA
S113048008950E9482020E94E8080E9428040E94A3
S1130490120586E00E942A050E9473020895809145
S11304A03701811105C00E94500081E0809337011B
S11304B080913701813021F40E941A010E944B017E
S11304C080913701823011F40E94C001809137017C
S11304D0833011F40E94180280913701843011F4A2
S11304E00E942602089560E08BE00E945005089562
S11304F061E08BE00E945206089560E08BE00E9468
S113050052060895CF93C0E009C060E08C2F0E948A
S1130510500561E08C2F0E945206CF5FC330A8F3D0
S1130520C3E005C062E08C2F0E945005CF5FC63047
S1130530C8F3CF910895FF920F931F93CF93DF9346
S11305401F92CDB7DEB781E0898300E0AEC060E0E2
S1130550802F0E94520687E893E10197F1F700C0CB
S1130560000013E09AC0BE016F5F7F4F812F0E948D
S1130570EF068EC0BE016F5F7F4F812F0E94EF0692
S1130580013011F130F00230D1F1033009F451C0DF
S11305906AC0143051F020F4133009F466C078C0F6
S11305A0153041F0163059F073C00F2EF8E3FF2ECA
S11305B0F02D6EC00F2EF9E3FF2EF02D69C00F2E23
S11305C0FFE2FF2EF02D64C0143051F020F41330FC
S11305D009F450C05DC0153041F0163059F058C0D0
S11305E00F2EF5E3FF2EF02D53C00F2EF6E3FF2E52
S11305F0F02D4EC00F2EFAE2FF2EF02D49C014301C
S113060049F018F41330D9F143C0153041F01630D5
S113061059F03EC00F2EF2E3FF2EF02D39C00F2EFD
S1130620F3E3FF2EF02D34C00F2EFDE2FF2EF02D4C
S11306302FC0143049F018F4133031F129C01530AB
S113064041F0163059F024C00F2EF0E3FF2EF02DA8
S11306501FC00F2EFDE3FF2EF02D1AC00F2EFBE25C
S1130660FF2EF02D15C0F12C13C00F2EF7E3FF2E33
S1130670F02D0EC00F2EF4E3FF2EF02D09C00F2E27
S1130680F1E3FF2EF02D04C00F2EF1E4FF2EF02D28
S11306908981882309F46ECF1F5F163008F463CF75
S11306A061E0802F0E9452060F5F033008F44FCFA1
S11306B08F2D0F90DF91CF911F910F91FF9008958F
S11306C0CF93C82F60E088E10E94520660E089E180
S11306D00E945206C4FB662760F980E10E9452061C
S11306E0C5FB662760F981E10E945206C6FB6627B6
S11306F060F982E10E9452066C2F661F6627661F0E
S113070083E10E94520661E08AE10E94520689EF69
S113071090E00197F1F700C0000060E08AE10E94D8
S1130720520689EF90E00197F1F700C000006C2FAA
S1130730617080E10E945206C1FB662760F981E185
S11307400E945206C2FB662760F982E10E945206AB
S1130750C3FB662760F983E10E94520661E08AE1E7
S11307600E94520689EF90E00197F1F700C0000063
S113077060E08AE10E94520689EF90E00197F1F768
S113078000C00000CF910895CF93C82F61E088E1A5
S11307900E94520660E089E10E945206C4FB66276B
S11307A060F980E10E945206C5FB662760F981E189
S11307B00E945206C6FB662760F982E10E94520637
S11307C06C2F661F6627661F83E10E94520661E054
S11307D08AE10E94520689EF90E00197F1F700C088
S11307E0000060E08AE10E94520689EF90E00197E0
S11307F0F1F700C000006C2F617080E10E94520686
S1130800C1FB662760F981E10E945206C2FB66279C
S113081060F982E10E945206C3FB662760F983E116
S11308200E94520661E08AE10E94520689EF90E03C
S11308300197F1F700C0000060E08AE10E945206CF
S113084089EF90E00197F1F700C00000CF9108957F
S113085060E088E10E94500560E089E10E94500553
S113086060E08AE10E94500560E080E10E9450054A
S113087060E081E10E94500560E082E10E94500541
S113088060E083E10E94500583ED90E30197F1F766
S113089000C0000082E00E94600389EF90E00197AD
S11308A0F1F700C0000088E20E94600389EF90E045
S11308B00197F1F700C000008CE00E94600389EF0B
S11308C090E00197F1F700C0000081E00E9460030E
S11308D083EF91E00197F1F700C0000086E00E94E9
S11308E0600389EF90E00197F1F700C000000895DC
S11308F00F931F93CF938C01C0E003C00E94C403E5
S1130900CF5FF801EC0FF11D80818111F7CFCF91FA
S11309101F910F910895CF92DF92EF92FF921F9350
S1130920CF93DF93CDB7DEB760970FB6F894DEBFF1
S11309300FBECDBF6B017C01672B682B692B19F4AB
S113094080E30E94C40310E015C0C701B6012AE089
S113095030E040E050E00E94D70BE1E0F0E0EC0F23
S1130960FD1FE10FF11D605D60831F5FC22ED32E5A
S1130970E42EF52EC114D104E104F10431F70DC0C5
S1130980E12FF0E0319781E090E08C0F9D1FE80F9C
S1130990F91F80810E94C40311501111F1CF609698
S11309A00FB6F894DEBF0FBECDBFDF91CF911F917C
S11309B0FF90EF90DF90CF90089581E00E94600354
S11309C00895813029F480E8860F0E946003089519
S11309D0823021F480EC860F0E94600308950E9407
S11309E0C40308950F931F93CF938C01862F90E037
S11309F00896880F880F880F0E946003C0E007C024
S1130A00F801EC0FF11D80810E94C403CF5FC83050
S1130A10B8F3CF911F910F9108950E9441020E9453
S1130A204F02FDCF87B18F7387B987B1806C87B9C7
S1130A3086B1806286B980B78F7180BF80B780BF6E
S1130A4087B18F7D87B986B1806186B986B18068A8
S1130A5086B9089597B1907E97B997B1892B87B9D4
S1130A6086B1806486B9369BFECF089584B195B172
S1130A7008950E943605BC0180E090E00E94720A4D
S1130A8020E030E040E250E40E946A0B20E030E0D5
S1130A9040E251E40E94D1090E94430ACB01089527
S1130AA0982F9695969596958770953008F0F8C08E
S1130AB0613031F008F4A4C0623009F451C0EFC0D1
S1130AC09130C1F028F0923039F19330B9F1E7C098
S1130AD04AB321E030E0B90102C0660F771F8A955E
S1130AE0E2F7CB018095942F98239ABB9BB389237B
S1130AF08BBBD5C047B321E030E0B90102C0660F1B
S1130B00771F8A95E2F7CB018095942F982397BBA2
S1130B1098B3892388BBC3C044B321E030E0B90152
S1130B2002C0660F771F8A95E2F7CB018095942F58
S1130B30982394BB95B3892385BBB1C041B321E00D
S1130B4030E0B90102C0660F771F8A95E2F7CB0146
S1130B508095942F982391BB92B3892382BB9FC025
S1130B609130C1F028F0923039F19330B9F197C047
S1130B704AB321E030E0B90102C0660F771F8A95BD
S1130B80E2F7CB01962F909594239ABB9BB3892BC4
S1130B908BBB85C047B321E030E0B90102C0660FCA
S1130BA0771F8A95E2F7CB01962F9095942397BBF4
S1130BB098B3892B88BB73C044B321E030E0B901FA
S1130BC002C0660F771F8A95E2F7CB01962F9095A6
S1130BD0942394BB95B3892B85BB61C041B321E0B9
S1130BE030E0B90102C0660F771F8A95E2F7CB01A6
S1130BF0962F9095942391BB92B3892B82BB4FC0BF
S1130C009130C1F028F0923039F19330B9F147C0F6
S1130C104BB321E030E0B90102C0660F771F8A951B
S1130C20E2F7CB01962F909594239BBB9AB3892B23
S1130C308ABB35C048B321E030E0B90102C0660F79
S1130C40771F8A95E2F7CB01962F9095942398BB52
S1130C5097B3892B87BB23C045B321E030E0B901AA
S1130C6002C0660F771F8A95E2F7CB01962F909505
S1130C70942395BB94B3892B84BB11C042B321E068
S1130C8030E0B90102C0660F771F8A95E2F7CB0105
S1130C90962F9095942392BB91B3892B81BB089591
S1130CA082E00895982F969596959695877095303D
S1130CB008F08DC0633008F08CC0613009F040C08A
S1130CC09130A1F028F09230F9F0933059F183C0BB
S1130CD04BB321E030E0B90102C0660F771F8A955B
S1130CE0E2F7CB01842B8BBB80E0089548B321E06D
S1130CF030E0B90102C0660F771F8A95E2F7CB0195
S1130D00842B88BB80E0089545B321E030E0B9012D
S1130D1002C0660F771F8A95E2F7CB01842B85BB4F
S1130D2080E0089542B321E030E0B90102C0660FCB
S1130D30771F8A95E2F7CB01842B82BB80E008956C
S1130D40611144C09130A9F028F0923009F1933038
S1130D5071F143C04BB321E030E0B90102C0660F2A
S1130D60771F8A95E2F7CB01809584238BBB80E0C3
S1130D70089548B321E030E0B90102C0660F771F3F
S1130D808A95E2F7CB018095842388BB80E008959F
S1130D9045B321E030E0B90102C0660F771F8A95A0
S1130DA0E2F7CB018095842385BB80E0089542B3AC
S1130DB021E030E0B90102C0660F771F8A95E2F79F
S1130DC0CB018095842382BB80E00895089582E05E
S1130DD0089583E0089580E0089580E00895982FB1
S1130DE09695969596958770953008F040C0913009
S1130DF0A1F028F09230F9F0933059F13AC029B3B8
S1130E0030E0A90102C0559547958A95E2F7CA01D9
S1130E108170FB01808380E0089526B330E0A9014E
S1130E2002C0559547958A95E2F7CA018170FB0186
S1130E30808380E0089523B330E0A90102C0559572
S1130E4047958A95E2F7CA018170FB01808380E0AF
S1130E50089520B330E0A90102C0559547958A95BD
S1130E60E2F7CA018170FB01808380E0089582E08B
S1130E70089580E008958130F1F028F0823099F0EF
S1130E80833049F020C083B78F7B83BF83B7877FCC
S1130E9083BF84E0089583B7806483BF83B7877F6B
S1130EA083BF84E0089583B78F7B83BF83B7886053
S1130EB083BF84E0089583B7806483BF83B7886069
S1130EC083BF84E0089581E00895823009F128F415
S1130ED0882341F0813089F03CC0853021F186308F
S1130EE069F137C083B7816083BF83B78D7F83BFC8
S1130EF083B78B7F83BF84E0089583B7826083BF09
S1130F0083B78E7F83BF83B78B7F83BF84E00895CD
S1130F1083B7816083BF83B7826083BF83B78B7FCE
S1130F2083BF84E0089583B7846083BF83B78D7FD4
S1130F3083BF83B78E7F83BF84E0089583B78160C6
S1130F4083BF83B78D7F83BF83B7846083BF84E00F
S1130F50089580E00895CF92DF92EF92FF926B01A3
S1130F607C0120E030E040E853E40E94CC0988236F
S1130F7094F420E030E0A901C701B6010E94650B9A
S1130F8088235CF0C701B6010E94B5090E94430A98
S1130F9062BF84E003C083E001C083E0FF90EF9070
S1130FA0DF90CF9008958F929F92AF92BF92CF928D
S1130FB0DF92EF92FF924B015C0120E030E0A90147
S1130FC00E94650B181694F01EC008B600FEFDCFF3
S1130FD088B7816088BF20E030E040E85FE3C70164
S1130FE0B6010E9449096B017C0103C0C12CD12CBC
S1130FF07601A5019401C701B6010E94CC0988239A
S113100024F384E02AC020E030E0A901C501B40142
S11310100E94CC0918169CF482E01FC008B600FE9A
S1131020FDCF88B7816088BF20E030E040E85FE30F
S1131030C701B6010E9449096B017C0103C0C12CA0
S1131040D12C760120E030E040E85FE3C701B6012F
S11310500E94CC09882314F384E0FF90EF90DF9082
S1131060CF90BF90AF909F908F90089520E030E094
S11310704AE754E40E94D1092DEB37E346E859E3EB
S11310800E94D1090E94B509609332017093330123
S1131090809334019093350180E00E943B0760E027
S11310A070E0CB010E94AB0780E00E94650760916D
S11310B032017091330180913401909135010E9485
S11310C0D30708958130F1F028F0823099F083300D
S11310D049F020C085B58F7B85BD85B5877F85BDEB
S11310E084E0089585B5806485BD85B5877F85BD19
S11310F084E0089585B58F7B85BD85B5886085BD01
S113110084E0089585B5806485BD85B5886085BD16
S113111084E0089581E0089584BD84E0089590E01A
S11311208730910508F052C0FC01E65DFF4F0C9436
S1131130F90B85B5816085BD85B58D7F85BD85B588
S11311408B7F85BD84E0089585B5826085BD85B5B6
S11311508E7F85BD85B58B7F85BD84E0089585B57B
S1131160816085BD85B5826085BD85B58B7F85BD74
S113117084E0089585B5846085BD85B58D7F85BD82
S113118085B58E7F85BD84E0089585B5816085BD74
S113119085B58D7F85BD85B5846085BD84E0089562
S11311A085B5846085BD85B58E7F85BD85B5826036
S11311B085BD84E0089585B5816085BD85B582606F
S11311C085BD85B5846085BD84E0089580E008957B
S11311D0789489B7806489BF80E00E94620880E0C7
S11311E00E948C0880E00E948F0808951F920F923D
S11311F00FB60F9211242F938F939F93AF93BF93A6
S113120080913701813091F580913601813071F5FB
S113121080912E0190912F01A0913001B091310164
S11312208C342CE49207A105B10564F40196A11D48
S1131230B11D80932E0190932F01A0933001B093A0
S113124031011CC08C349C44A105B105B9F4109241
S11312502E0110922F01109230011092310184E17D
S11312608093600082E08093370108C010922E01C1
S113127010922F011092300110923101BF91AF9161
S11312809F918F912F910F900FBE0F901F901895E3
S11312905058BB27AA270E9460090C94130B0E9484
S11312A0050B38F00E940C0B20F039F49F3F19F421
S11312B026F40C94020B0EF4E095E7FB0C94D30A8D
S11312C0E92F0E94240B58F3BA17620773078407A7
S11312D0950720F079F4A6F50C945E0B0EF4E095D6
S11312E00B2EBA2FA02D0B01B90190010C01CA01DC
S11312F0A0011124FF27591B99F0593F50F4503E87
S113130068F11A16F040A22F232F342F4427585F78
S1131310F3CF469537952795A795F0405395C9F790
S11313207EF41F16BA0B620B730B840BBAF0915048
S1131330A1F0FF0FBB1F661F771F881FC2F70EC0E7
S1131340BA0F621F731F841F48F4879577956795BA
S1131350B795F7959E3F08F0B0CF9395880F08F0A6
S11313609927EE0F9795879508950E94460B90F064
S11313709F3748F4911116F40C945F0B60E070E011
S113138080E89FE3089526F01B16611D711D811DE1
S11313900C94D90A0C94F40A0E94AF0A08F481E070
S11313A008950E94E5090C94130B0E940C0B58F04D
S11313B00E94050B40F029F45F3F29F00C94D30AF6
S11313C051110C945F0B0C94020B0E94240B68F3D4
S11313D09923B1F3552391F3951B550BBB27AA27EA
S11313E062177307840738F09F5F5F4F220F331F24
S11313F0441FAA1FA9F335D00E2E3AF0E0E832D0EC
S113140091505040E695001CCAF72BD0FE2F29D0EE
S1131410660F771F881FBB1F261737074807AB07C0
S1131420B0E809F0BB0B802DBF01FF2793585F4F35
S11314303AF09E3F510578F00C94D30A0C945F0B5C
S11314405F3FE4F3983ED4F3869577956795B79517
S1131450F7959F5FC9F7880F911D9695879597F922
S11314600895E1E0660F771F881FBB1F621773079B
S11314708407BA0720F0621B730B840BBA0BEE1FB0
S113148088F7E09508950E942C0B88F09F5798F0F8
S1131490B92F9927B751B0F0E1F0660F771F881F75
S11314A0991F1AF0BA95C9F714C0B13091F00E948F
S11314B05E0BB1E008950C945E0B672F782F88279C
S11314C0B85F39F0B93FCCF3869577956795B395B6
S11314D0D9F73EF490958095709561957F4F8F4F25
S11314E09F4F0895E89409C097FB3EF4909580952A
S11314F0709561957F4F8F4F9F4F9923A9F0F92FD6
S113150096E9BB279395F695879577956795B79553
S1131510F111F8CFFAF4BB0F11F460FF1BC06F5F39
S11315207F4F8F4F9F4F16C0882311F096E911C04B
S1131530772321F09EE8872F762F05C0662371F06C
S113154096E8862F70E060E02AF09A95660F771F80
S1131550881FDAF7880F9695879597F90895990F5C
S11315600008550FAA0BE0E8FEEF16161706E80769
S1131570F907C0F012161306E407F50798F0621B8A
S1131580730B840B950B39F40A2661F0232B242B5F
S1131590252B21F408950A2609F4A140A6958FEF7E
S11315A0811D811D089597F99F6780E870E060E0D0
S11315B00895882371F4772321F09850872B762F90
S11315C007C0662311F499270DC09051862B70E053
S11315D060E02AF09A95660F771F881FDAF7880F64
S11315E09695879597F908959F3F31F0915020F48F
S11315F0879577956795B795880F911D96958795EB
S113160097F908959FEF80EC089500240A94161624
S1131610170618060906089500240A9412161306DC
S1131620140605060895092E0394000C11F488236A
S113163052F0BB0F40F4BF2B11F460FF04C06F5F86
S11316407F4F8F4F9F4F089557FD9058440F551F5C
S113165059F05F3F71F04795880F97FB991F61F030
S11316609F3F79F087950895121613061406551FA7
S1131670F2CF4695F1DF08C0161617061806991F13
S1131680F1CF869571056105089408950E942C0B8D
S1131690A0F0BEE7B91788F4BB279F3860F416168C
S11316A0B11D672F782F8827985FF7CF8695779598
S11316B06795B11D93959639C8F30895E894BB27AF
S11316C066277727CB0197F908950E94AF0A08F49B
S11316D08FEF08950E947D0B0C94130B0E94050B51
S11316E038F00E940C0B20F0952311F00C94D30ACF
S11316F00C94020B11240C945F0B0E94240B70F3C6
S1131700959FC1F3950F50E0551F629FF001729FA2
S1131710BB27F00DB11D639FAA27F00DB11DAA1FB1
S1131720649F6627B00DA11D661F829F2227B00DFE
S1131730A11D621F739FB00DA11D621F839FA00D89
S1131740611D221F749F3327A00D611D231F849FD9
S1131750600D211D822F762F6A2F11249F57504030
S11317609AF0F1F088234AF0EE0FFF1FBB1F661FAB
S1131770771F881F91505040A9F79E3F510580F074
S11317800C94D30A0C945F0B5F3FE4F3983ED4F3BC
S1131790869577956795B795F795E7959F5FC1F718
S11317A0FE2B880F911D9695879597F90895A1E2D0
S11317B01A2EAA1BBB1BFD010DC0AA1FBB1FEE1FC7
S11317C0FF1FA217B307E407F50720F0A21BB30B12
S11317D0E40BF50B661F771F881F991F1A9469F78E
S11317E060957095809590959B01AC01BD01CF01EA
S11317F00895EE0FFF1F0590F491E02D0994F894DD
S1051800FFCF14
S113180214040E0E0E1F000400313A2B2B09323A37
S11318122D2D2020333A53455400343A5245534532
S11318225409353A41444A555354003C3C57656C7B
S1131832636F6D653E3E0044656661756C74205449
S1131842656D703D3230004D41582054454D502055
S11318524953203335004D494E2054454D502049BB
S11318625320313800504C454153452043484F4F93
S11318725345200052455155495245442054454D43
S113188250200063757272656E742074656D7020E9
S11318923D00746865206F7065726174696F6E20B3
S11318A26973006E6F7420616C6C6F7765640054A9
S11318B2656D702076616C7565206973007265735D
S11118C26574746C656420746F20323000000D
S9030000FC
