:100000000C9431000C942E060C9469060C9478061E
:100010000C944E000C945C080C944E000C944E0012
:100020000C944E000C944E000C944E000C944E0018
:100030000C944E000C944E000C944E000C944E0008
:100040000C944E000C944E000C944E000C944E00F8
:100050000C944E00FF070A08200815082B083608E4
:10006000410811241FBECFE5D8E0DEBFCDBF10E0B0
:10007000A0E6B0E0EEECF6E102C005900D92A83EDD
:10008000B107D9F720E0A8EEB0E001C01D92A73F6C
:10009000B207E1F70E9400040C94650B0C94000079
:1000A00060E081E00E94EE0381E690E00E9485031B
:1000B00060E082E00E94EE0380E790E00E9485030A
:1000C00060E070E08AEF93E40E949C070E94EA03DC
:1000D00060E081E00E94EE038FE790E00E948503DC
:1000E00060E082E00E94EE038EE890E00E948503CB
:1000F00060E070E08AEF93E40E949C070E94EA03AC
:100100000895CF93DF93D0E03CC00E94B401D82F74
:1001100060E070E088E492E40E949C07D13319F01B
:10012000D23349F012C0809160008F5F80936000ED
:100130001092F5000DC080916000815080936000A6
:100140000E94EA031092F50003C081E08093F5005D
:1001500067E081E00E94EE036091600070E080E063
:1001600090E00E94980360E082E00E94EE03C2E10A
:1001700004C08CE70E94FC03CF5F809160008C1765
:10018000C0F7D33329F08091F600823009F0BDCF5B
:1001900082E08093F600DF91CF910895CF93DF93B3
:1001A00086E00E941D0462E081E00E94EE038DE97A
:1001B00090E00E94850362E082E00E94EE030E94CC
:1001C0002C04EC01BC0180E090E00E949803CE0179
:1001D000DF91CF910895CF930E94EA03C0E030C031
:1001E0000E94B401C82F60E070E088E492E40E94AD
:1001F0009C070E94CE002091600030E0281739074C
:1002000018F40E94910102C00E9496018FEC8C0F9D
:100210008230B0F40E94EA038CEA90E00E948503E9
:1002200061E082E00E94EE038DEB90E00E94850386
:1002300060E070E08AEF93E40E949C070E94EA036A
:100240008CEC8C0F823060F60E94EA03C43321F4F8
:1002500083E08093F60005C0C53319F484E08093F1
:10026000F600CF9108950E94EA030E94960181E072
:100270008093F60060E070E08AEF93E40E949C07B0
:1002800008950E94EA0384E18093600089EC90E085
:100290000E94850361E082E00E94EE0387ED90E01A
:1002A0000E94850360E070E08AEF94E40E949C075E
:1002B00082E08093F60008950E949B010E944E0800
:1002C0000E9435030E94050486E00E941D040E94DE
:1002D0008C0108958091F600811103C081E0809324
:1002E000F6008091F600813021F40E9450000E94B7
:1002F00081008091F600823011F40E94EB00809121
:10030000F600833011F40E9433018091F6008430AE
:1003100011F40E944101089560E08BE00E944304C3
:10032000089561E08BE00E944505089560E08BE050
:100330000E9445050895CF93C0E009C060E08C2F6E
:100340000E94430461E08C2F0E944505CF5FC330BB
:10035000A8F3C3E005C062E08C2F0E944304CF5F86
:10036000C630C8F3CF910895FF920F931F93CF9398
:10037000DF931F92CDB7DEB781E0898300E0AEC086
:1003800060E0802F0E94450587E893E10197F1F72F
:1003900000C0000013E09AC0BE016F5F7F4F812F45
:1003A0000E94E2058EC0BE016F5F7F4F812F0E94C9
:1003B000E205013011F130F00230D1F1033009F4DF
:1003C00051C06AC0143051F020F4133009F466C0F3
:1003D00078C0153041F0163059F073C00F2EF8E395
:1003E000FF2EF02D6EC00F2EF9E3FF2EF02D69C009
:1003F0000F2EFFE2FF2EF02D64C0143051F020F4D8
:10040000133009F450C05DC0153041F0163059F07A
:1004100058C00F2EF5E3FF2EF02D53C00F2EF6E33C
:10042000FF2EF02D4EC00F2EFAE2FF2EF02D49C008
:10043000143049F018F41330D9F143C0153041F0AD
:10044000163059F03EC00F2EF2E3FF2EF02D39C0CA
:100450000F2EF3E3FF2EF02D34C00F2EFDE2FF2E02
:10046000F02D2FC0143049F018F4133031F129C0A9
:10047000153041F0163059F024C00F2EF0E3FF2E56
:10048000F02D1FC00F2EFDE3FF2EF02D1AC00F2EF2
:10049000FBE2FF2EF02D15C0F12C13C00F2EF7E359
:1004A000FF2EF02D0EC00F2EF4E3FF2EF02D09C00D
:1004B0000F2EF1E3FF2EF02D04C00F2EF1E4FF2EDE
:1004C000F02D8981882309F46ECF1F5F163008F460
:1004D00063CF61E0802F0E9445050F5F033008F471
:1004E0004FCF8F2D0F90DF91CF911F910F91FF90E4
:1004F0000895CF93C82F60E088E10E94450560E031
:1005000089E10E944505C4FB662760F980E10E94ED
:100510004505C5FB662760F981E10E944505C6FBDC
:10052000662760F982E10E9445056C2F661F6627E9
:10053000661F83E10E94450561E08AE10E9445054E
:1005400089EF90E00197F1F700C0000060E08AE1D8
:100550000E94450589EF90E00197F1F700C0000087
:100560006C2F617080E10E944505C1FB662760F930
:1005700081E10E944505C2FB662760F982E10E9485
:100580004505C3FB662760F983E10E94450561E0EC
:100590008AE10E94450589EF90E00197F1F700C0DC
:1005A000000060E08AE10E94450589EF90E0019734
:1005B000F1F700C00000CF910895CF93C82F61E0FC
:1005C00088E10E94450560E089E10E944505C4FB81
:1005D000662760F980E10E944505C5FB662760F942
:1005E00081E10E944505C6FB662760F982E10E9411
:1005F00045056C2F661F6627661F83E10E9445052F
:1006000061E08AE10E944505000060E08AE10E9405
:10061000450582E48A95F1F700C06C2F617080E196
:100620000E944505C1FB662760F981E10E944505EE
:10063000C2FB662760F982E10E944505C3FB66277D
:1006400060F983E10E94450561E08AE10E94450569
:10065000000060E08AE10E94450583EF91E0019788
:10066000F1F700C00000CF91089560E080E10E94A2
:10067000430460E081E10E94430460E082E10E9463
:10068000430460E083E10E94430460E088E10E944B
:10069000430460E089E10E94430460E08AE10E9433
:1006A000430483ED90E30197F1F700C0000082E07E
:1006B0000E94790289EF90E00197F1F700C00000F5
:1006C00088E20E94790289EF90E00197F1F700C07B
:1006D00000008CE00E94790289EF90E00197F1F729
:1006E00000C0000081E00E94790283EF91E0019751
:1006F000F1F700C0000086E00E94790289EF90E0E7
:100700000197F1F700C0000008950F931F93CF9356
:100710008C01C0E003C00E94DD02CF5FF801EC0F46
:10072000F11D80818111F7CFCF911F910F91089515
:10073000CF92DF92EF92FF921F93CF93DF93CDB7CB
:10074000DEB760970FB6F894DEBF0FBECDBF6B016A
:100750007C01672B682B692B19F480E30E94DD0272
:1007600010E015C0C701B6012AE030E040E050E0DB
:100770000E943D0BE1E0F0E0EC0FFD1FE10FF11DE9
:10078000605D60831F5FC22ED32EE42EF52EC11450
:10079000D104E104F10431F70DC0E12FF0E031970D
:1007A00081E090E08C0F9D1FE80FF91F80810E946F
:1007B000DD0211501111F1CF60960FB6F894DEBF33
:1007C0000FBECDBFDF91CF911F91FF90EF90DF90D3
:1007D000CF90089581E00E9479020895813029F434
:1007E00080E8860F0E9479020895823021F480EC1F
:1007F000860F0E947902089581110E94DD020895FA
:100800000E945C010E946A01FDCF87B18F7387B996
:1008100087B1806C87B986B1806286B980B78F71E5
:1008200080BF80B780BF87B18F7D87B986B1806177
:1008300086B986B1806886B9089597B1907E97B9D8
:1008400097B1892B87B986B1806486B9369BFECF74
:10085000089584B195B108950E942904BC0180E0F7
:1008600090E00E94D80920E030E040E250E40E948D
:10087000D00A20E030E040E251E40E9437090E94B3
:10088000A909CB010895982F96959695969587700E
:10089000953008F0F8C0613031F008F4A4C062303F
:1008A00009F451C0EFC09130C1F028F0923039F115
:1008B0009330B9F1E7C04AB321E030E0B90102C09A
:1008C000660F771F8A95E2F7CB018095942F9823C6
:1008D0009ABB9BB389238BBBD5C047B321E030E0E3
:1008E000B90102C0660F771F8A95E2F7CB018095A8
:1008F000942F982397BB98B3892388BBC3C044B374
:1009000021E030E0B90102C0660F771F8A95E2F757
:10091000CB018095942F982394BB95B3892385BBF5
:10092000B1C041B321E030E0B90102C0660F771FCA
:100930008A95E2F7CB018095942F982391BB92B3CF
:10094000892382BB9FC09130C1F028F0923039F1E9
:100950009330B9F197C04AB321E030E0B90102C049
:10096000660F771F8A95E2F7CB01962F9095942317
:100970009ABB9BB3892B8BBB85C047B321E030E08A
:10098000B90102C0660F771F8A95E2F7CB01962F57
:100990009095942397BB98B3892B88BB73C044B3BD
:1009A00021E030E0B90102C0660F771F8A95E2F7B7
:1009B000CB01962F9095942394BB95B3892B85BB3F
:1009C00061C041B321E030E0B90102C0660F771F7A
:1009D0008A95E2F7CB01962F9095942391BB92B321
:1009E000892B82BB4FC09130C1F028F0923039F191
:1009F0009330B9F147C04BB321E030E0B90102C0F8
:100A0000660F771F8A95E2F7CB01962F9095942376
:100A10009BBB9AB3892B8ABB35C048B321E030E039
:100A2000B90102C0660F771F8A95E2F7CB01962FB6
:100A30009095942398BB97B3892B87BB23C045B36C
:100A400021E030E0B90102C0660F771F8A95E2F716
:100A5000CB01962F9095942395BB94B3892B84BB9F
:100A600011C042B321E030E0B90102C0660F771F28
:100A70008A95E2F7CB01962F9095942392BB91B380
:100A8000892B81BB089582E00895982F96959695BD
:100A900096958770953008F08DC0633008F08CC053
:100AA000613009F040C09130A1F028F09230F9F0A7
:100AB000933059F183C04BB321E030E0B90102C05B
:100AC000660F771F8A95E2F7CB01842B8BBB80E002
:100AD000089548B321E030E0B90102C0660F771FE6
:100AE0008A95E2F7CB01842B88BB80E0089545B35B
:100AF00021E030E0B90102C0660F771F8A95E2F766
:100B0000CB01842B85BB80E0089542B321E030E027
:100B1000B90102C0660F771F8A95E2F7CB01842BDB
:100B200082BB80E00895611144C09130A9F028F0A3
:100B3000923009F1933071F143C04BB321E030E0C2
:100B4000B90102C0660F771F8A95E2F7CB01809545
:100B500084238BBB80E0089548B321E030E0B901E5
:100B600002C0660F771F8A95E2F7CB018095842338
:100B700088BB80E0089545B321E030E0B90102C0B0
:100B8000660F771F8A95E2F7CB018095842385BB9A
:100B900080E0089542B321E030E0B90102C0660F61
:100BA000771F8A95E2F7CB018095842382BB80E092
:100BB0000895089582E0089583E0089580E00895FF
:100BC00080E00895982F9695969596958770953024
:100BD00008F040C09130A1F028F09230F9F0933045
:100BE00059F13AC029B330E0A90102C055954795A3
:100BF0008A95E2F7CA018170FB01808380E0089545
:100C000026B330E0A90102C0559547958A95E2F7D1
:100C1000CA018170FB01808380E0089523B330E036
:100C2000A90102C0559547958A95E2F7CA018170DE
:100C3000FB01808380E0089520B330E0A90102C069
:100C4000559547958A95E2F7CA018170FB0180832B
:100C500080E0089582E0089580E008951F920F9249
:100C60000FB60F9211242F933F934F935F936F937F
:100C70007F938F939F93AF93BF93EF93FF931092C4
:100C8000E800E091EB00F091EC00309789F00995D5
:100C900060E080E10E94450560E081E10E94450539
:100CA00060E082E10E94450560E083E10E94450525
:100CB000FF91EF91BF91AF919F918F917F916F9134
:100CC0005F914F913F912F910F900FBE0F901F900A
:100CD00018951F920F920FB60F9211248F9381E0F7
:100CE0008093E8008F910F900FBE0F901F90189582
:100CF0001F920F920FB60F9211242F933F934F9391
:100D00005F936F937F938F939F93AF93BF93EF9373
:100D1000FF93E091E900F091EA00309709F009951E
:100D2000FF91EF91BF91AF919F918F917F916F91C3
:100D30005F914F913F912F910F900FBE0F901F9099
:100D400018958130F1F028F0823099F0833049F025
:100D500020C083B78F7B83BF83B7877F83BF84E047
:100D6000089583B7806483BF83B7877F83BF84E0A0
:100D7000089583B78F7B83BF83B7886083BF84E088
:100D8000089583B7806483BF83B7886083BF84E09E
:100D9000089581E00895823009F128F4882341F014
:100DA000813089F03CC0853021F1863069F137C04F
:100DB00083B7816083BF83B78D7F83BF83B78B7F0A
:100DC00083BF84E0089583B7826083BF83B78E7F3B
:100DD00083BF83B78B7F83BF84E0089583B781602F
:100DE00083BF83B7826083BF83B78B7F83BF84E079
:100DF000089583B7846083BF83B78D7F83BF83B734
:100E00008E7F83BF84E0089583B7816083BF83B7FB
:100E10008D7F83BF83B7846083BF84E0089580E0C3
:100E20000895CF92DF92EF92FF926B017C0120E058
:100E300030E040E853E40E943209882394F420E033
:100E400030E0A901C701B6010E94CB0A88235CF0FB
:100E5000C701B6010E941B090E94A90962BF84E074
:100E600003C083E001C083E0FF90EF90DF90CF905C
:100E700008958F929F92AF92BF92CF92DF92EF929E
:100E8000FF924B015C0120E030E0A9010E94CB0AF7
:100E9000181694F01EC008B600FEFDCF88B781601A
:100EA00088BF20E030E040E85FE3C701B6010E9460
:100EB000AF086B017C0103C0C12CD12C7601A501C8
:100EC0009401C701B6010E943209882324F384E00B
:100ED0002AC020E030E0A901C501B4010E94320916
:100EE00018169CF482E01FC008B600FEFDCF88B73C
:100EF000816088BF20E030E040E85FE3C701B601D1
:100F00000E94AF086B017C0103C0C12CD12C76017B
:100F100020E030E040E85FE3C701B6010E943209FB
:100F2000882314F384E0FF90EF90DF90CF90BF9080
:100F3000AF909F908F90089520E030E04AE754E40E
:100F40000E9437092DEB37E346E859E30E94370941
:100F50000E941B096093F1007093F2008093F300EC
:100F60009093F40080E00E94A10660E070E0CB0165
:100F70000E94110780E00E94CB066091F100709101
:100F8000F2008091F3009091F4000E9439070895D7
:100F90008130F1F028F0823099F0833049F020C0A0
:100FA00085B58F7B85BD85B5877F85BD84E0089538
:100FB00085B5806485BD85B5877F85BD84E008954E
:100FC00085B58F7B85BD85B5886085BD84E0089536
:100FD00085B5806485BD85B5886085BD84E008954C
:100FE00081E0089584BD84E0089590E08730910504
:100FF00008F052C0FC01E65DFF4F0C945F0B85B515
:10100000816085BD85B58D7F85BD85B58B7F85BDAF
:1010100084E0089585B5826085BD85B58E7F85BDE8
:1010200085B58B7F85BD84E0089585B5816085BDDC
:1010300085B5826085BD85B58B7F85BD84E00895CB
:1010400085B5846085BD85B58D7F85BD85B58E7F71
:1010500085BD84E0089585B5816085BD85B58D7FAA
:1010600085BD85B5846085BD84E0089585B58460BF
:1010700085BD85B58E7F85BD85B5826085BD84E0E3
:10108000089585B5816085BD85B5826085BD85B5CE
:10109000846085BD84E0089580E00895789489B7E0
:1010A000806489BF80E00E94C80780E00E94F20748
:1010B00080E00E94F50708951F920F920FB60F92DD
:1010C00011242F938F939F93AF93BF938091F6003A
:1010D000813091F58091F500813071F58091ED00BE
:1010E0009091EE00A091EF00B091F0008C342CE4D0
:1010F0009207A105B10564F40196A11DB11D80936D
:10110000ED009093EE00A093EF00B093F0001CC0B0
:101110008C349C44A105B105B9F41092ED001092F5
:10112000EE001092EF001092F00084E180936000D6
:1011300082E08093F60008C01092ED001092EE005D
:101140001092EF001092F000BF91AF919F918F919C
:101150002F910F900FBE0F901F9018955058BB27DE
:10116000AA270E94C6080C94790A0E946B0A38F0DC
:101170000E94720A20F039F49F3F19F426F40C946F
:10118000680A0EF4E095E7FB0C94390AE92F0E94F7
:101190008A0A58F3BA17620773078407950720F085
:1011A00079F4A6F50C94C40A0EF4E0950B2EBA2F30
:1011B000A02D0B01B90190010C01CA01A00111245D
:1011C000FF27591B99F0593F50F4503E68F11A1609
:1011D000F040A22F232F342F4427585FF3CF46959A
:1011E00037952795A795F0405395C9F77EF41F16BC
:1011F000BA0B620B730B840BBAF09150A1F0FF0F86
:10120000BB1F661F771F881FC2F70EC0BA0F621F71
:10121000731F841F48F4879577956795B795F79561
:101220009E3F08F0B0CF9395880F08F09927EE0FF6
:101230009795879508950E94AC0A90F09F3748F4DF
:10124000911116F40C94C50A60E070E080E89FE309
:10125000089526F01B16611D711D811D0C943F0A17
:101260000C945A0A0E94150A08F481E008950E941D
:101270004B090C94790A0E94720A58F00E946B0A7A
:1012800040F029F45F3F29F00C94390A51110C9475
:10129000C50A0C94680A0E948A0A68F39923B1F37C
:1012A000552391F3951B550BBB27AA27621773078C
:1012B000840738F09F5F5F4F220F331F441FAA1F20
:1012C000A9F335D00E2E3AF0E0E832D091505040DC
:1012D000E695001CCAF72BD0FE2F29D0660F771F8A
:1012E000881FBB1F261737074807AB07B0E809F070
:1012F000BB0B802DBF01FF2793585F4F3AF09E3FF5
:10130000510578F00C94390A0C94C50A5F3FE4F358
:10131000983ED4F3869577956795B795F7959F5F37
:10132000C9F7880F911D9695879597F90895E1E083
:10133000660F771F881FBB1F621773078407BA07E2
:1013400020F0621B730B840BBA0BEE1F88F7E0953D
:1013500008950E94920A88F09F5798F0B92F992714
:10136000B751B0F0E1F0660F771F881F991F1AF090
:10137000BA95C9F714C0B13091F00E94C40AB1E027
:1013800008950C94C40A672F782F8827B85F39F026
:10139000B93FCCF3869577956795B395D9F73EF429
:1013A00090958095709561957F4F8F4F9F4F0895D1
:1013B000E89409C097FB3EF49095809570956195EF
:1013C0007F4F8F4F9F4F9923A9F0F92F96E9BB27A5
:1013D0009395F695879577956795B795F111F8CF21
:1013E000FAF4BB0F11F460FF1BC06F5F7F4F8F4F8C
:1013F0009F4F16C0882311F096E911C0772321F082
:101400009EE8872F762F05C0662371F096E8862F19
:1014100070E060E02AF09A95660F771F881FDAF770
:10142000880F9695879597F90895990F0008550F9D
:10143000AA0BE0E8FEEF16161706E807F907C0F05A
:1014400012161306E407F50798F0621B730B840B62
:10145000950B39F40A2661F0232B242B252B21F43C
:1014600008950A2609F4A140A6958FEF811D811DDC
:10147000089597F99F6780E870E060E008958823F9
:1014800071F4772321F09850872B762F07C06623BD
:1014900011F499270DC09051862B70E060E02AF07E
:1014A0009A95660F771F881FDAF7880F96958795AC
:1014B00097F908959F3F31F0915020F487957795E3
:1014C0006795B795880F911D9695879597F908951B
:1014D0009FEF80EC089500240A941616170618064C
:1014E0000906089500240A94121613061406050628
:1014F0000895092E0394000C11F4882352F0BB0FB9
:1015000040F4BF2B11F460FF04C06F5F7F4F8F4F1B
:101510009F4F089557FD9058440F551F59F05F3F56
:1015200071F04795880F97FB991F61F09F3F79F005
:1015300087950895121613061406551FF2CF469587
:10154000F1DF08C0161617061806991FF1CF869509
:1015500071056105089408950E94920AA0F0BEE703
:10156000B91788F4BB279F3860F41616B11D672F92
:10157000782F8827985FF7CF869577956795B11D67
:1015800093959639C8F30895E894BB276627772783
:10159000CB0197F908950E94150A08F48FEF08957A
:1015A0000E94E30A0C94790A0E946B0A38F00E94A8
:1015B000720A20F0952311F00C94390A0C94680AF1
:1015C00011240C94C50A0E948A0A70F3959FC1F3F6
:1015D000950F50E0551F629FF001729FBB27F00DE1
:1015E000B11D639FAA27F00DB11DAA1F649F662736
:1015F000B00DA11D661F829F2227B00DA11D621F85
:10160000739FB00DA11D621F839FA00D611D221F3E
:10161000749F3327A00D611D231F849F600D211D22
:10162000822F762F6A2F11249F5750409AF0F1F0A5
:1016300088234AF0EE0FFF1FBB1F661F771F881F0E
:1016400091505040A9F79E3F510580F00C94390A03
:101650000C94C50A5F3FE4F3983ED4F386957795E2
:101660006795B795F795E7959F5FC1F7FE2B880FB4
:10167000911D9695879597F90895A1E21A2EAA1BB8
:10168000BB1BFD010DC0AA1FBB1FEE1FFF1FA21732
:10169000B307E407F50720F0A21BB30BE40BF50B2F
:1016A000661F771F881F991F1A9469F760957095B8
:1016B000809590959B01AC01BD01CF010895EE0F7F
:0E16C000FF1F0590F491E02D0994F894FFCFE0
:1016CE00144D41582054454D502049532033350078
:1016DE004D494E2054454D5020495320313800502D
:1016EE004C454153452043484F4F534520005245EA
:1016FE005155495245442054454D50200063757252
:10170E0072656E742074656D70203D00746865207E
:10171E006F7065726174696F6E206973006E6F749D
:10172E0020616C6C6F7765640054656D7020766116
:10173E006C7565206973007265736574746C65648D
:08174E0020746F20323000000E
:00000001FF
