S017000041697220436F6E646974696F6E65722E7372656353
S11300000C9431000C944E000C944E000C944E0051
S11300100C944E000C9410090C944E000C944E0059
S11300200C944E000C944E000C944E000C944E0014
S11300300C944E000C944E000C944E000C944E0004
S11300400C944E000C944E000C944E000C944E00F4
S11300500C944E00B308BE08D408C908DF08EA08A7
S1130060F50811241FBECFE5D8E0DEBFCDBF11E0F7
S1130070A0E6B0E0E0E3F8E102C005900D92AA32F8
S1130080B107D9F721E0AAE2B1E001C01D92A4337F
S1130090B207E1F70E9427050C94160C0C9400009B
S11300A00F931F93CF93DF93CDB7DEB7A4970FB60B
S11300B0F894DEBF0FBECDBF8CE0EBE8F0E0DE01CC
S11300C0119601900D928A95E1F780E1E7E9F0E05D
S11300D0DE011D9601900D928A95E1F788E0E1E634
S11300E0F0E0DE015D9601900D928A95E1F700E063
S11300F001C00F5FE1E0F0E0EC0FFD1FE00FF11D28
S113010080818111F6CF10E001C01F5FEDE0F0E0C7
S1130110EC0FFD1FE10FF11D80818111F6CF14C09A
S1130120802F90E0019721E030E02C0F3D1F820FDB
S1130130931F0E94920483ED90E30197F1F700C0AE
S113014000000E94F7040150023050F700E011C093
S1130150602F81E00E94FB04CE0101960E9492046C
S113016083ED90E30197F1F700C000000E94F704CB
S11301700F5F0F3068F318C060E082E00E94FB0458
S1130180812F90E001972DE030E02C0F3D1F820F6E
S1130190931F0E94920483ED90E30197F1F700C04E
S11301A000000E94F7041150123030F783ED90E301
S11301B00197F1F700C0000010E011C0612F82E048
S11301C00E94FB04CE010D960E94920483ED90E3FD
S11301D00197F1F700C000000E94F7041F5F1F3071
S11301E068F360E081E00E94FB0489E690E00E94ED
S11301F0920460E082E00E94FB048AE790E00E949F
S113020092049FE926E831E0915020403040E1F724
S113021000C0000062E0CE014D960E940C05A49639
S11302200FB6F894DEBF0FBECDBFDF91CF911F9103
S11302300F9108950E94F70460E081E00E94FB049E
S113024087EA90E00E94920460E082E00E94FB044E
S113025086EB90E00E94920460E070E08AEF93E401
S11302600E9450080E94F70460E081E00E94FB04B1
S113027085EC90E00E94920460E082E00E94FB041E
S113028084ED90E00E94920460E070E08AEF93E4D1
S11302900E9450080E94F7040895CF93DF93D0E0A2
S11302A054C00E94B502D82F60E070E088E492E464
S11302B00E945008D13319F0D23359F016C08091FE
S11302C06000833218F48F5F8093600010923201D3
S11302D00FC080916000833118F0815080936000DA
S11302E00E94F7041092320103C081E0809332012E
S11302F060E081E00E94FB0462E170E080E090E055
S11303000E94A5046EE081E00E94FB0463E270E0B9
S113031080E090E00E94A50467E081E00E94FB0475
S11303206091600070E080E090E00E94A50460E0CD
S113033082E00E94FB04C2E104C08CE70E9409052C
S1130340CF5F809160008C17C0F7D33339F0D53379
S113035029F080913301823009F0A3CFD33319F00F
S1130360D53329F007C082E08093330103C084E0D1
S113037080933301DF91CF910895CF93DF9386E08B
S11303800E94440562E081E00E94FB0483EE90E059
S11303900E94920462E082E00E94FB040E945305E2
S11303A0EC01BC0180E090E00E94A504CE01DF9145
S11303B0CF910895CF930E94F704C0E03FC00E94FC
S11303C0B502C82F60E070E088E492E40E9450080F
S11303D00E94BD012091600030E02817390750F4D5
S11303E00E94920268E082E00E94FB0482E00E9484
S11303F009050AC00E94970268E082E00E94FB049B
S113040082ED90E00E9492048FEC8C0F8230B0F465
S11304100E94F70482EF90E00E94920461E082E07F
S11304200E94FB0483E091E00E94920460E070E08B
S11304308AEF93E40E9450080E94F7048CEC8C0F1E
S1130440823008F0BCCF0E94F704C43321F483E067
S11304508093330105C0C53319F484E080933301DC
S1130460CF9108950E94F7040E94970281E080933F
S1130470330160E070E08AEF93E40E94500808952D
S11304800E94F70484E1809360008FE091E00E9471
S1130490920461E082E00E94FB048DE191E00E94FD
S11304A0920460E070E08AEF94E40E94500882E0D5
S11304B08093330108950E949C020E9402090E94C5
S11304C042040E942C0586E00E9444050E948D028D
S11304D0089580913301811105C00E94500081E08C
S11304E08093330180913301813021F40E941A01F9
S11304F00E944D0180913301823011F40E94DA018F
S113050080913301833011F40E94320280913301CF
S1130510843011F40E944002089560E08BE00E9450
S11305206A05089561E08BE00E946C06089560E01E
S11305308BE00E946C060895CF93C0E009C060E090
S11305408C2F0E946A0561E08C2F0E946C06CF5F9D
S1130550C330A8F3C3E005C062E08C2F0E946A0593
S1130560CF5FC630C8F3CF910895FF920F931F93C6
S1130570CF93DF931F92CDB7DEB781E0898300E08C
S1130580AEC060E0802F0E946C0687E893E101977B
S1130590F1F700C0000013E09AC0BE016F5F7F4F07
S11305A0812F0E9409078EC0BE016F5F7F4F812F8C
S11305B00E940907013011F130F00230D1F103300B
S11305C009F451C06AC0143051F020F4133009F416
S11305D066C078C0153041F0163059F073C00F2E44
S11305E0F8E3FF2EF02D6EC00F2EF9E3FF2EF02D51
S11305F069C00F2EFFE2FF2EF02D64C0143051F0BD
S113060020F4133009F450C05DC0153041F01630A9
S113061059F058C00F2EF5E3FF2EF02D53C00F2EC6
S1130620F6E3FF2EF02D4EC00F2EFAE2FF2EF02D32
S113063049C0143049F018F41330D9F143C01530CF
S113064041F0163059F03EC00F2EF2E3FF2EF02D8C
S113065039C00F2EF3E3FF2EF02D34C00F2EFDE230
S1130660FF2EF02D2FC0143049F018F4133031F15F
S113067029C0153041F0163059F024C00F2EF0E394
S1130680FF2EF02D1FC00F2EFDE3FF2EF02D1AC0FC
S11306900F2EFBE2FF2EF02D15C0F12C13C00F2EF0
S11306A0F7E3FF2EF02D0EC00F2EF4E3FF2EF02DF6
S11306B009C00F2EF1E3FF2EF02D04C00F2EF1E43C
S11306C0FF2EF02D8981882309F46ECF1F5F163029
S11306D008F463CF61E0802F0E946C060F5F033043
S11306E008F44FCF8F2D0F90DF91CF911F910F9171
S11306F0FF900895CF93C82F60E088E10E946C06B4
S113070060E089E10E946C06C4FB662760F980E121
S11307100E946C06C5FB662760F981E10E946C06A5
S1130720C6FB662760F982E10E946C066C2F661F87
S11307306627661F83E10E946C0661E08AE10E94DD
S11307406C0689EF90E00197F1F700C0000060E0CB
S11307508AE10E946C0689EF90E00197F1F700C0EE
S113076000006C2F617080E10E946C06C1FB66275B
S113077060F981E10E946C06C2FB662760F982E1A0
S11307800E946C06C3FB662760F983E10E946C0635
S113079061E08AE10E946C0689EF90E00197F1F72D
S11307A000C0000060E08AE10E946C0689EF90E0DE
S11307B00197F1F700C00000CF910895CF93C82F9F
S11307C061E088E10E946C0660E089E10E946C06A9
S11307D0C4FB662760F980E10E946C06C5FB6627AE
S11307E060F981E10E946C06C6FB662760F982E12C
S11307F00E946C066C2F661F6627661F83E10E94A9
S11308006C0661E08AE10E946C0689EF90E0019732
S1130810F1F700C0000060E08AE10E946C0689EFF5
S113082090E00197F1F700C000006C2F617080E147
S11308300E946C06C1FB662760F981E10E946C0688
S1130840C2FB662760F982E10E946C06C3FB66273F
S113085060F983E10E946C0661E08AE10E946C0603
S113086089EF90E00197F1F700C0000060E08AE1B1
S11308700E946C0689EF90E00197F1F700C0000038
S1130880CF91089560E088E10E946A0560E089E103
S11308900E946A0560E08AE10E946A0560E080E1E6
S11308A00E946A0560E081E10E946A0560E082E1DD
S11308B00E946A0560E083E10E946A0583ED90E38B
S11308C00197F1F700C0000082E00E947A0389EFEB
S11308D090E00197F1F700C0000088E20E947A03DB
S11308E089EF90E00197F1F700C000008CE00E94CE
S11308F07A0389EF90E00197F1F700C0000081E0EE
S11309000E947A0383EF91E00197F1F700C00000A1
S113091086E00E947A0389EF90E00197F1F700C026
S1130920000008950F931F93CF938C01C0E003C080
S11309300E94DE03CF5FF801EC0FF11D808181116D
S1130940F7CFCF911F910F910895CF92DF92EF923D
S1130950FF921F93CF93DF93CDB7DEB760970FB6A7
S1130960F894DEBF0FBECDBF6B017C01672B682BF3
S1130970692B19F480E30E94DE0310E015C0C7015F
S1130980B6012AE030E040E050E00E94EE0BE1E0E6
S1130990F0E0EC0FFD1FE10FF11D605D60831F5F50
S11309A0C22ED32EE42EF52EC114D104E104F10499
S11309B031F70DC0E12FF0E0319781E090E08C0F2A
S11309C09D1FE80FF91F80810E94DE031150111151
S11309D0F1CF60960FB6F894DEBF0FBECDBFDF91A6
S11309E0CF911F91FF90EF90DF90CF90089581E019
S11309F00E947A030895813029F480E8860F0E94CA
S1130A007A030895823021F480EC860F0E947A03E1
S1130A1008950E94DE0308950F931F93CF938C01D2
S1130A20862F90E00896880F880F880F0E947A031B
S1130A30C0E007C0F801EC0FF11D80810E94DE03C5
S1130A40CF5FC830B8F3CF911F910F9108950E94E2
S1130A505B020E946902FDCF87B18F7387B987B1AA
S1130A60806C87B986B1806286B980B78F7180BF88
S1130A7080B780BF87B18F7D87B986B1806186B921
S1130A8086B1806886B9089597B1907E97B997B179
S1130A90892B87B986B1806486B9369BFECF0895C9
S1130AA084B195B108950E945005BC0180E090E0A6
S1130AB00E94890A20E030E040E250E40E94810B69
S1130AC020E030E040E251E40E94E8090E945A0A22
S1130AD0CB010895982F96959695969587709530A5
S1130AE008F0F8C0613031F008F4A4C0623009F4B1
S1130AF051C0EFC09130C1F028F0923039F19330F9
S1130B00B9F1E7C04AB321E030E0B90102C0660F91
S1130B10771F8A95E2F7CB018095942F98239ABB8F
S1130B209BB389238BBBD5C047B321E030E0B90127
S1130B3002C0660F771F8A95E2F7CB018095942F48
S1130B40982397BB98B3892388BBC3C044B321E0DF
S1130B5030E0B90102C0660F771F8A95E2F7CB0136
S1130B608095942F982394BB95B3892385BBB1C0FA
S1130B7041B321E030E0B90102C0660F771F8A95C6
S1130B80E2F7CB018095942F982391BB92B38923EC
S1130B9082BB9FC09130C1F028F0923039F193307C
S1130BA0B9F197C04AB321E030E0B90102C0660F41
S1130BB0771F8A95E2F7CB01962F909594239ABBE1
S1130BC09BB3892B8BBB85C047B321E030E0B901CF
S1130BD002C0660F771F8A95E2F7CB01962F909596
S1130BE0942397BB98B3892B88BB73C044B321E08B
S1130BF030E0B90102C0660F771F8A95E2F7CB0196
S1130C00962F9095942394BB95B3892B85BB61C093
S1130C1041B321E030E0B90102C0660F771F8A9525
S1130C20E2F7CB01962F9095942391BB92B3892B35
S1130C3082BB4FC09130C1F028F0923039F193302B
S1130C40B9F147C04BB321E030E0B90102C0660FEF
S1130C50771F8A95E2F7CB01962F909594239BBB3F
S1130C609AB3892B8ABB35C048B321E030E0B9017F
S1130C7002C0660F771F8A95E2F7CB01962F9095F5
S1130C80942398BB97B3892B87BB23C045B321E03A
S1130C9030E0B90102C0660F771F8A95E2F7CB01F5
S1130CA0962F9095942395BB94B3892B84BB11C044
S1130CB042B321E030E0B90102C0660F771F8A9584
S1130CC0E2F7CB01962F9095942392BB91B3892B95
S1130CD081BB089582E00895982F969596959695F0
S1130CE08770953008F08DC0633008F08CC0613097
S1130CF009F040C09130A1F028F09230F9F093301F
S1130D0059F183C04BB321E030E0B90102C0660F52
S1130D10771F8A95E2F7CB01842B8BBB80E0089583
S1130D2048B321E030E0B90102C0660F771F8A950D
S1130D30E2F7CB01842B88BB80E0089545B321E022
S1130D4030E0B90102C0660F771F8A95E2F7CB0144
S1130D50842B85BB80E0089542B321E030E0B901E3
S1130D6002C0660F771F8A95E2F7CB01842B82BB02
S1130D7080E00895611144C09130A9F028F09230C8
S1130D8009F1933071F143C04BB321E030E0B90174
S1130D9002C0660F771F8A95E2F7CB018095842302
S1130DA08BBB80E0089548B321E030E0B90102C074
S1130DB0660F771F8A95E2F7CB018095842388BB61
S1130DC080E0089545B321E030E0B90102C0660F28
S1130DD0771F8A95E2F7CB018095842385BB80E059
S1130DE0089542B321E030E0B90102C0660F771FD5
S1130DF08A95E2F7CB018095842382BB80E0089535
S1130E00089582E0089583E0089580E0089580E0E5
S1130E100895982F9695969596958770953008F035
S1130E2040C09130A1F028F09230F9F0933059F19C
S1130E303AC029B330E0A90102C0559547958A9577
S1130E40E2F7CA018170FB01808380E0089526B334
S1130E5030E0A90102C0559547958A95E2F7CA0189
S1130E608170FB01808380E0089523B330E0A90101
S1130E7002C0559547958A95E2F7CA018170FB0136
S1130E80808380E0089520B330E0A90102C0559525
S1130E9047958A95E2F7CA018170FB01808380E05F
S1130EA0089582E0089580E008958130F1F028F0FB
S1130EB0823099F0833049F020C083B78F7B83BFA1
S1130EC083B7877F83BF84E0089583B7806483BF3B
S1130ED083B7877F83BF84E0089583B78F7B83BF05
S1130EE083B7886083BF84E0089583B7806483BF39
S1130EF083B7886083BF84E0089581E008958230D9
S1130F0009F128F4882341F0813089F03CC0853010
S1130F1021F1863069F137C083B7816083BF83B71D
S1130F208D7F83BF83B78B7F83BF84E0089583B7AE
S1130F30826083BF83B78E7F83BF83B78B7F83BF7A
S1130F4084E0089583B7816083BF83B7826083BFE1
S1130F5083B78B7F83BF84E0089583B7846083BFA6
S1130F6083B78D7F83BF83B78E7F83BF84E008956B
S1130F7083B7816083BF83B78D7F83BF83B784606A
S1130F8083BF84E0089580E00895CF92DF92EF92CA
S1130F90FF926B017C0120E030E040E853E40E94C2
S1130FA0E309882394F420E030E0A901C701B601E5
S1130FB00E947C0B88235CF0C701B6010E94CC0917
S1130FC00E945A0A62BF84E003C083E001C083E048
S1130FD0FF90EF90DF90CF9008958F929F92AF9201
S1130FE0BF92CF92DF92EF92FF924B015C0120E01F
S1130FF030E0A9010E947C0B181694F01EC008B6BC
S113100000FEFDCF88B7816088BF20E030E040E873
S11310105FE3C701B6010E9460096B017C0103C054
S1131020C12CD12C7601A5019401C701B6010E94FF
S1131030E309882324F384E02AC020E030E0A901F6
S1131040C501B4010E94E30918169CF482E01FC094
S113105008B600FEFDCF88B7816088BF20E030E08D
S113106040E85FE3C701B6010E9460096B017C019F
S113107003C0C12CD12C760120E030E040E85FE3CE
S1131080C701B6010E94E309882314F384E0FF90AA
S1131090EF90DF90CF90BF90AF909F908F90089586
S11310A020E030E04AE754E40E94E8092DEB37E3FE
S11310B046E859E30E94E8090E94CC0960932E0196
S11310C070932F01809330019093310180E00E944E
S11310D0550760E070E0CB010E94C50780E00E94E4
S11310E07F0760912E0170912F01809130019091C2
S11310F031010E94ED0708958130F1F028F082302B
S113110099F0833049F020C085B58F7B85BD85B5C6
S1131110877F85BD84E0089585B5806485BD85B5E8
S1131120877F85BD84E0089585B58F7B85BD85B5B2
S1131130886085BD84E0089585B5806485BD85B5E6
S1131140886085BD84E0089581E0089584BD84E0CD
S1131150089590E08730910508F052C0FC01E65DE7
S1131160FF4F0C94100C85B5816085BD85B58D7FCE
S113117085BD85B58B7F85BD84E0089585B5826086
S113118085BD85B58E7F85BD85B58B7F85BD84E0A6
S1131190089585B5816085BD85B5826085BD85B5B9
S11311A08B7F85BD84E0089585B5846085BD85B554
S11311B08D7F85BD85B58E7F85BD84E0089585B519
S11311C0816085BD85B58D7F85BD85B5846085BD10
S11311D084E0089585B5846085BD85B58E7F85BD21
S11311E085B5826085BD84E0089585B5816085BD3F
S11311F085B5826085BD85B5846085BD84E008952C
S113120080E00895789489B7806489BF80E00E9463
S11312107C0880E00E94A60880E00E94A908089546
S11312201F920F920FB60F9211242F938F939F93B7
S1131230AF93BF9380913301813079F5809132016E
S1131240813059F580912A0190912B01A0912C01B4
S1131250B0912D018C342CE49207A105B10564F4FE
S11312600196A11DB11D80932A0190932B01A09397
S11312702C01B0932D0119C08C349C44A105B105F7
S1131280A1F410922A0110922B0110922C011092B9
S11312902D0182E08093330108C010922A0110923C
S11312A02B0110922C0110922D01BF91AF919F91AF
S11312B08F912F910F900FBE0F901F90189550583B
S11312C0BB27AA270E9477090C942A0B0E941C0BA7
S11312D038F00E94230B20F039F49F3F19F426F4D0
S11312E00C94190B0EF4E095E7FB0C94EA0AE92F31
S11312F00E943B0B58F3BA176207730784079507DC
S113130020F079F4A6F50C94750B0EF4E0950B2EF1
S1131310BA2FA02D0B01B90190010C01CA01A00143
S11313201124FF27591B99F0593F50F4503E68F19E
S11313301A16F040A22F232F342F4427585FF3CFDF
S1131340469537952795A795F0405395C9F77EF4B0
S11313501F16BA0B620B730B840BBAF09150A1F0F9
S1131360FF0FBB1F661F771F881FC2F70EC0BA0F7F
S1131370621F731F841F48F4879577956795B79507
S1131380F7959E3F08F0B0CF9395880F08F0992702
S1131390EE0F9795879508950E945D0B90F09F3707
S11313A048F4911116F40C94760B60E070E080E838
S11313B09FE3089526F01B16611D711D811D0C9479
S11313C0F00A0C940B0B0E94C60A08F481E00895FD
S11313D00E94FC090C942A0B0E94230B58F00E94D3
S11313E01C0B40F029F45F3F29F00C94EA0A5111D8
S11313F00C94760B0C94190B0E943B0B68F3992305
S1131400B1F3552391F3951B550BBB27AA276217FC
S11314107307840738F09F5F5F4F220F331F441F09
S1131420AA1FA9F335D00E2E3AF0E0E832D091503D
S11314305040E695001CCAF72BD0FE2F29D0660F2A
S1131440771F881FBB1F261737074807AB07B0E86D
S113145009F0BB0B802DBF01FF2793585F4F3AF073
S11314609E3F510578F00C94EA0A0C94760B5F3F8A
S1131470E4F3983ED4F3869577956795B795F795F9
S11314809F5FC9F7880F911D9695879597F90895E1
S1131490E1E0660F771F881FBB1F6217730784077D
S11314A0BA0720F0621B730B840BBA0BEE1F88F78C
S11314B0E09508950E94430B88F09F5798F0B92F48
S11314C09927B751B0F0E1F0660F771F881F991F75
S11314D01AF0BA95C9F714C0B13091F00E94750B97
S11314E0B1E008950C94750B672F782F8827B85FA7
S11314F039F0B93FCCF3869577956795B395D9F7CD
S11315003EF490958095709561957F4F8F4F9F4FD6
S11315100895E89409C097FB3EF4909580957095E2
S113152061957F4F8F4F9F4F9923A9F0F92F96E92B
S1131530BB279395F695879577956795B795F111A0
S1131540F8CFFAF4BB0F11F460FF1BC06F5F7F4F3D
S11315508F4F9F4F16C0882311F096E911C077234F
S113156021F09EE8872F762F05C0662371F096E858
S1131570862F70E060E02AF09A95660F771F881F27
S1131580DAF7880F9695879597F90895990F0008CB
S1131590550FAA0BE0E8FEEF16161706E807F90741
S11315A0C0F012161306E407F50798F0621B730BDC
S11315B0840B950B39F40A2661F0232B242B252B5D
S11315C021F408950A2609F4A140A6958FEF811D00
S11315D0811D089597F99F6780E870E060E00895A1
S11315E0882371F4772321F09850872B762F07C036
S11315F0662311F499270DC09051862B70E060E0AA
S11316002AF09A95660F771F881FDAF7880F969548
S1131610879597F908959F3F31F0915020F487956D
S113162077956795B795880F911D9695879597F946
S113163008959FEF80EC089500240A941616170667
S113164018060906089500240A94121613061406AF
S113165005060895092E0394000C11F4882352F012
S1131660BB0F40F4BF2B11F460FF04C06F5F7F4FCA
S11316708F4F9F4F089557FD9058440F551F59F0B1
S11316805F3F71F04795880F97FB991F61F09F3F6B
S113169079F087950895121613061406551FF2CF94
S11316A04695F1DF08C0161617061806991FF1CFE4
S11316B0869571056105089408950E94430BA0F076
S11316C0BEE7B91788F4BB279F3860F41616B11D1E
S11316D0672F782F8827985FF7CF8695779567953A
S11316E0B11D93959639C8F30895E894BB276627EE
S11316F07727CB0197F908950E94C60A08F48FEF63
S113170008950E94940B0C942A0B0E941C0B38F031
S11317100E94230B20F0952311F00C94EA0A0C94F8
S1131720190B11240C94760B0E943B0B70F3959FBC
S1131730C1F3950F50E0551F629FF001729FBB27C4
S1131740F00DB11D639FAA27F00DB11DAA1F649F60
S11317506627B00DA11D661F829F2227B00DA11D13
S1131760621F739FB00DA11D621F839FA00D611D99
S1131770221F749F3327A00D611D231F849F600DBA
S1131780211D822F762F6A2F11249F5750409AF0E3
S1131790F1F088234AF0EE0FFF1FBB1F661F771F6F
S11317A0881F91505040A9F79E3F510580F00C943A
S11317B0EA0A0C94760B5F3FE4F3983ED4F38695E3
S11317C077956795B795F795E7959F5FC1F7FE2BDA
S11317D0880F911D9695879597F90895A1E21A2E81
S11317E0AA1BBB1BFD010DC0AA1FBB1FEE1FFF1FC1
S11317F0A217B307E407F50720F0A21BB30BE40B11
S1131800F50B661F771F881F991F1A9469F7609557
S11318107095809590959B01AC01BD01CF01089511
S1131820EE0FFF1F0590F491E02D0994F894FFCF7B
S113183014040E0E0E1F000400313A2B2B09323A09
S11318402D2D2020333A53455400343A5245534504
S11318505409353A41444A555354003C3C57656C4D
S1131860636F6D653E3E0044656661756C7420541B
S1131870656D703D3230004D41582054454D502027
S11318804953203335004D494E2054454D5020498D
S11318905320313800504C454153452043484F4F65
S11318A05345200052455155495245442054454D15
S11318B050200063757272656E742074656D7020BB
S11318C03D00746865206F7065726174696F6E2085
S11318D06973006E6F7420616C6C6F77656400547B
S11318E0656D702076616C7565206973007265732F
S10D18F0657420746F20323000008C
S9030000FC
